{"abi":[{"type":"function","name":"verifyProof","inputs":[{"name":"_pA","type":"uint256[2]","internalType":"uint256[2]"},{"name":"_pB","type":"uint256[2][2]","internalType":"uint256[2][2]"},{"name":"_pC","type":"uint256[2]","internalType":"uint256[2]"},{"name":"_pubSignals","type":"uint256[9]","internalType":"uint256[9]"}],"outputs":[{"name":"","type":"bool","internalType":"bool"}],"stateMutability":"view"}],"bytecode":{"object":"0x608060405234801561001057600080fd5b50610848806100206000396000f3fe608060405234801561001057600080fd5b506004361061002b5760003560e01c8063c542c93b14610030575b600080fd5b61004361003e3660046107ac565b610057565b604051901515815260200160405180910390f35b60006106fb565b7f30644e72e131a029b85045b68181585d2833e84879b9709143e1f593f0000001811061008f576000805260206000f35b50565b600060405183815284602082015285604082015260408160608360076107d05a03fa9150816100c5576000805260206000f35b825160408201526020830151606082015260408360808360066107d05a03fa915050806100f6576000805260206000f35b5050505050565b7f25ec9c7d68d744098e088a6200b3530b36754c5c64f5b82a9a92f7803bff413e85527f03f4e7a2f67d000b553e6000f4127cb7a7315b1c6d62a725c15320199f65007a60208601526000608086018661019a87357f18a05e5a043c2501906bb05a723de062d3bb8f2b2ff89df669778717f5f8dc077f1982fdf79952d3e69c9eb864e1f88d00bac731322dc775a0b30944786b5ac53084610092565b6101ea60208801357f19595d63b56eb20bea8ac1508560d0bb4bbe4b7f7477ab00fd9e9d4edfbae8c87f27d35459b1a61211c8f34a44a83f39e13f9098ca34aaaf9b60b0158f67c37a1c84610092565b61023a60408801357f27824890260be14e84441a466a985335cb4da51fd8816e17300ba7824a23fb137f2c87efc4b3e341ee3e6d0fed3992b25fac4efe8fab354d0ea5cfff6748a1ce2a84610092565b61028a60608801357f0dc25b4c4dcd3136c65d40cbf422627d5142e1f00ba9a05c649106fd4001ea737f0ecec2f0007377b9d98617eb9b10d6c4d2a250e7a4642d796c5de6867d6ce38184610092565b6102da60808801357f1ba5dc7a743bcddfd344420917fe44fc7654b50bb1db60755f9604e74f1fff947f0e8170c2fb3897aa940dbccd1c701fbed53b6d9d1aac2c43bb627b1253e1ffb284610092565b61032a60a08801357f0cd50f030b3785bec1b11522716640398d44ae9883a5638df2e212420aa4b2827f2f358614183506b17bff56a7f3136ab8dc643fc16a21e08b799a6f80527d54a584610092565b61037a60c08801357f11d7d2acae00ccf7cd99fcc6c20881f2cdd0e3d32cdaf504f675afadedbb02277f08a343a0069ac76be67aeba9463a21199a140e3402630603818fe79c90703a9484610092565b6103ca60e08801357f0c898315e952e21c7f2d56feb86b16b0ff722bb0c25f13cc2eb8c9acfac94ed57f2b77c31030e609f05a40b8746c3513995ae6f5a24df0f21947f2f30c2f4f7d9b84610092565b61041b6101008801357f17c78d7ad1e40bcd2bcd1af42a807fde10fa3ed87e06ba6fb15d4ed6300edac97f213f3caf167bb6aa777367d20376bb70a3c0f99f66a0e30ce686ced63b350fc384610092565b50823581527f30644e72e131a029b85045b68181585d97816a916871ca8d3c208c16d87cfd4760208401357f30644e72e131a029b85045b68181585d97816a916871ca8d3c208c16d87cfd4703066020820152833560408201526020840135606082015260408401356080820152606084013560a08201527f2d4d9aa7e302d9df41749d5507949d05dbea33fbb16c643b22f599a2be6df2e260c08201527f14bedd503c37ceb061d8ec60209fe345ce89830a19230301f076caff004d192660e08201527f0967032fcbf776d1afc985f88877f182d38480a653f2decaa9794cbc3bf3060c6101008201527f0e187847ad4c798374d0d6732bf501847dd68bc0e071241e0213bc7fc13db7ab6101208201527f304cfbd1e08a704a99f5e847d93f8c3caafddec46b7a0d379da69a4d112346a76101408201527f1739c1b1a457a8c7313123d24d2f9192f896b7c63eea05a9d57f06547ad0cec8610160820152600087015161018082015260206000018701516101a08201527f198e9393920d483a7260bfb731fb5d25f1aa493335a9e71297e485b7aef312c26101c08201527f1800deef121f1e76426a00665e5c4479674322d4f75edadd46debd5cd992f6ed6101e08201527f090689d0585ff075ec9e99ad690c3395bc4b313370b38ef355acdadcd122975b6102008201527f12c85ea5db8c6deb4aab71808dcb408fe3d1e7690c43d37b4ce6cc0166fa7daa610220820152843561024082015260208501356102608201527f167133f0ed6fc96f66f736ac2e1414129aa3efb20a48151c35aba14d2c1ee07b6102808201527f237b30d2e898d1cd192a0d3791982df72e94b100911d5c40e63954703540f2326102a08201527f2145e18ba10f3aa679d61d859e9727a89243cc6290f5573238f82ee85bc38dc86102c08201527f1088a67a7273823befdb949dab34509aadd9e785c2c09dc8da1b355e995dc5636102e08201526020816103008360086107d05a03fa9051169695505050505050565b6040516103808101604052610713600084013561005e565b610720602084013561005e565b61072d604084013561005e565b61073a606084013561005e565b610747608084013561005e565b61075460a084013561005e565b61076160c084013561005e565b61076e60e084013561005e565b61077c61010084013561005e565b610789818486888a6100fd565b90508060005260206000f35b80604081018310156107a657600080fd5b92915050565b6000806000806102208086880312156107c457600080fd5b6107ce8787610795565b945060c08601878111156107e157600080fd5b6040870194506107f18882610795565b93505086818701111561080357600080fd5b5092959194509261010001915056fea264697066735822122097de92662b29025b13b9980dd24390e924382d0864471c66ff1a361e092e205464736f6c63430008140033","linkReferences":{}},"methodIdentifiers":{"verifyProof(uint256[2],uint256[2][2],uint256[2],uint256[9])":"c542c93b"},"id":22}