{"abi":[{"type":"constructor","inputs":[{"name":"_verifier","type":"address","internalType":"address"},{"name":"_minAge","type":"uint256","internalType":"uint256"},{"name":"_requiredCitizenship","type":"uint256","internalType":"uint256"}],"stateMutability":"nonpayable"},{"type":"function","name":"addTrustedIssuerA","inputs":[{"name":"issuerPubkeyX","type":"uint256","internalType":"uint256"},{"name":"issuerPubkeyY","type":"uint256","internalType":"uint256"}],"outputs":[],"stateMutability":"nonpayable"},{"type":"function","name":"addTrustedIssuerB","inputs":[{"name":"issuerPubkeyX","type":"uint256","internalType":"uint256"},{"name":"issuerPubkeyY","type":"uint256","internalType":"uint256"}],"outputs":[],"stateMutability":"nonpayable"},{"type":"function","name":"minAge","inputs":[],"outputs":[{"name":"","type":"uint256","internalType":"uint256"}],"stateMutability":"view"},{"type":"function","name":"owner","inputs":[],"outputs":[{"name":"","type":"address","internalType":"address"}],"stateMutability":"view"},{"type":"function","name":"removeTrustedIssuerA","inputs":[{"name":"issuerPubkeyX","type":"uint256","internalType":"uint256"},{"name":"issuerPubkeyY","type":"uint256","internalType":"uint256"}],"outputs":[],"stateMutability":"nonpayable"},{"type":"function","name":"removeTrustedIssuerB","inputs":[{"name":"issuerPubkeyX","type":"uint256","internalType":"uint256"},{"name":"issuerPubkeyY","type":"uint256","internalType":"uint256"}],"outputs":[],"stateMutability":"nonpayable"},{"type":"function","name":"requiredCitizenship","inputs":[],"outputs":[{"name":"","type":"uint256","internalType":"uint256"}],"stateMutability":"view"},{"type":"function","name":"setMinAge","inputs":[{"name":"_minAge","type":"uint256","internalType":"uint256"}],"outputs":[],"stateMutability":"nonpayable"},{"type":"function","name":"setRequiredCitizenship","inputs":[{"name":"_requiredCitizenship","type":"uint256","internalType":"uint256"}],"outputs":[],"stateMutability":"nonpayable"},{"type":"function","name":"transferOwnership","inputs":[{"name":"newOwner","type":"address","internalType":"address"}],"outputs":[],"stateMutability":"nonpayable"},{"type":"function","name":"trustedIssuerA","inputs":[{"name":"","type":"bytes32","internalType":"bytes32"}],"outputs":[{"name":"","type":"bool","internalType":"bool"}],"stateMutability":"view"},{"type":"function","name":"trustedIssuerB","inputs":[{"name":"","type":"bytes32","internalType":"bytes32"}],"outputs":[{"name":"","type":"bool","internalType":"bool"}],"stateMutability":"view"},{"type":"function","name":"verifier","inputs":[],"outputs":[{"name":"","type":"address","internalType":"contract IVerifier"}],"stateMutability":"view"},{"type":"function","name":"verifyProof","inputs":[{"name":"a","type":"uint256[2]","internalType":"uint256[2]"},{"name":"b","type":"uint256[2][2]","internalType":"uint256[2][2]"},{"name":"c","type":"uint256[2]","internalType":"uint256[2]"},{"name":"input","type":"uint256[9]","internalType":"uint256[9]"}],"outputs":[{"name":"","type":"bool","internalType":"bool"}],"stateMutability":"view"},{"type":"event","name":"TrustedIssuerAdded","inputs":[{"name":"issuerKeyHash","type":"bytes32","indexed":true,"internalType":"bytes32"},{"name":"isIssuerA","type":"bool","indexed":false,"internalType":"bool"}],"anonymous":false},{"type":"event","name":"TrustedIssuerRemoved","inputs":[{"name":"issuerKeyHash","type":"bytes32","indexed":true,"internalType":"bytes32"},{"name":"isIssuerA","type":"bool","indexed":false,"internalType":"bool"}],"anonymous":false}],"bytecode":{"object":"0x608060405234801561001057600080fd5b50604051610cd8380380610cd883398101604081905261002f916100d7565b6001600160a01b0383166100a25760405162461bcd60e51b815260206004820152603060248201527f416765566572696669636174696f6e3a2076657269666965722063616e6e6f7460448201526f206265207a65726f206164647265737360801b606482015260840160405180910390fd5b600080546001600160a01b039094166001600160a01b031994851617905560018054909316331790925560045560055561011a565b6000806000606084860312156100ec57600080fd5b83516001600160a01b038116811461010357600080fd5b602085015160409095015190969495509392505050565b610baf806101296000396000f3fe608060405234801561001057600080fd5b50600436106100ea5760003560e01c8063c818d38c1161008c578063e7de4c6f11610066578063e7de4c6f146101e6578063ea668ea814610209578063f2fde38b1461021c578063fe5380de1461022f57600080fd5b8063c818d38c146101b7578063d34ff9c3146101c0578063dbbceb23146101d357600080fd5b8063a02b814f116100c8578063a02b814f14610149578063a41e3b251461017c578063b574466914610191578063c542c93b146101a457600080fd5b80632b7ac3f3146100ef57806355519d871461011f5780638da5cb5b14610136575b600080fd5b600054610102906001600160a01b031681565b6040516001600160a01b0390911681526020015b60405180910390f35b61012860045481565b604051908152602001610116565b600154610102906001600160a01b031681565b61016c610157366004610801565b60026020526000908152604090205460ff1681565b6040519015158152602001610116565b61018f61018a36600461081a565b610242565b005b61018f61019f36600461081a565b6102f7565b61016c6101b23660046108ef565b61038e565b61012860055481565b61018f6101ce366004610801565b6105af565b61018f6101e136600461081a565b6105de565b61016c6101f4366004610801565b60036020526000908152604090205460ff1681565b61018f61021736600461081a565b61067e565b61018f61022a3660046109cd565b61071d565b61018f61023d366004610801565b6107d2565b6001546001600160a01b031633146102755760405162461bcd60e51b815260040161026c906109fd565b60405180910390fd5b604080516020810184905290810182905260009060600160408051601f19818403018152828252805160209182012060008181526002835292909220805460ff19166001908117909155835290925082917f83e090fb877fd2f2bdfd9c6f30864ade4d957fae7eaf168dfd6c67ffdc6e560691015b60405180910390a2505050565b6001546001600160a01b031633146103215760405162461bcd60e51b815260040161026c906109fd565b6040805160208082018590528183018490528251808303840181526060830180855281519183019190912060008181526003909352938220805460ff191690555281907f7f6d5ee33e01d33eea68ae1fcf595c8d88b4d73ba7c754eb6b64e6b63b419229906080016102ea565b6000805460405163c542c93b60e01b81526001600160a01b039091169063c542c93b906103c5908890889088908890600401610a6e565b602060405180830381865afa1580156103e2573d6000803e3d6000fd5b505050506040513d601f19601f820116820180604052508101906104069190610b15565b610412575060006105a7565b8151602083015160408401516060850151608086015160a087015160c088015160e08901516101008a01514261044c6301e1338082610b4d565b8a10806104655750610462816301e13380610b66565b8a115b1561047d5760009a50505050505050505050506105a7565b60045489146104995760009a50505050505050505050506105a7565b60055488146104b55760009a50505050505050505050506105a7565b6040805160208082018a905281830189905282518083038401815260609092018352815191810191909120600081815260029092529190205460ff166105095760009b5050505050505050505050506105a7565b60408051602080820189905281830188905282518083038401815260609092018352815191810191909120600081815260039092529190205460ff1661055e5760009c505050505050505050505050506105a7565b33841461057a5760009c505050505050505050505050506105a7565b8385146105965760009c505050505050505050505050506105a7565b60019c505050505050505050505050505b949350505050565b6001546001600160a01b031633146105d95760405162461bcd60e51b815260040161026c906109fd565b600455565b6001546001600160a01b031633146106085760405162461bcd60e51b815260040161026c906109fd565b604080516020810184905290810182905260009060600160408051601f198184030181528282528051602091820120600081815260038352928320805460ff1916600117905591835290925082917f83e090fb877fd2f2bdfd9c6f30864ade4d957fae7eaf168dfd6c67ffdc6e560691016102ea565b6001546001600160a01b031633146106a85760405162461bcd60e51b815260040161026c906109fd565b604080516020810184905290810182905260009060600160408051808303601f19018152828252805160209182012060008181526002835292909220805460ff191690556001835290925082917f7f6d5ee33e01d33eea68ae1fcf595c8d88b4d73ba7c754eb6b64e6b63b41922991016102ea565b6001546001600160a01b031633146107475760405162461bcd60e51b815260040161026c906109fd565b6001600160a01b0381166107b05760405162461bcd60e51b815260206004820152602a60248201527f416765566572696669636174696f6e3a206e6577206f776e6572206973207a65604482015269726f206164647265737360b01b606482015260840161026c565b600180546001600160a01b0319166001600160a01b0392909216919091179055565b6001546001600160a01b031633146107fc5760405162461bcd60e51b815260040161026c906109fd565b600555565b60006020828403121561081357600080fd5b5035919050565b6000806040838503121561082d57600080fd5b50508035926020909101359150565b634e487b7160e01b600052604160045260246000fd5b6040805190810167ffffffffffffffff811182821017156108755761087561083c565b60405290565b604051610120810167ffffffffffffffff811182821017156108755761087561083c565b600082601f8301126108b057600080fd5b6108b8610852565b8060408401858111156108ca57600080fd5b845b818110156108e45780358452602093840193016108cc565b509095945050505050565b60008060008061022080868803121561090757600080fd5b610911878761089f565b9450604087605f88011261092457600080fd5b61092c610852565b8060c089018a81111561093e57600080fd5b838a015b81811015610963576109548c8261089f565b84526020909301928401610942565b508197506109718b8261089f565b9650505050508661011f87011261098757600080fd5b61098f61087b565b9086019080888311156109a157600080fd5b61010088015b838110156109bf5780358352602092830192016109a7565b509598949750929550505050565b6000602082840312156109df57600080fd5b81356001600160a01b03811681146109f657600080fd5b9392505050565b60208082526028908201527f416765566572696669636174696f6e3a2063616c6c6572206973206e6f74207460408201526734329037bbb732b960c11b606082015260800190565b8060005b6002811015610a68578151845260209384019390910190600101610a49565b50505050565b6102208101610a7d8287610a45565b60408083018660005b6002808210610a955750610ad0565b82518460005b83811015610ab9578251825260209283019290910190600101610a9b565b505050928401925060209190910190600101610a86565b50505050610ae160c0830185610a45565b61010082018360005b6009811015610b09578151835260209283019290910190600101610aea565b50505095945050505050565b600060208284031215610b2757600080fd5b815180151581146109f657600080fd5b634e487b7160e01b600052601160045260246000fd5b81810381811115610b6057610b60610b37565b92915050565b80820180821115610b6057610b60610b3756fea264697066735822122020a50ba9a2f9e2ad1036b57dbe25038034ba051af56dc0a79c1e34027268ce4364736f6c63430008140033","linkReferences":{}},"methodIdentifiers":{"addTrustedIssuerA(uint256,uint256)":"a41e3b25","addTrustedIssuerB(uint256,uint256)":"dbbceb23","minAge()":"55519d87","owner()":"8da5cb5b","removeTrustedIssuerA(uint256,uint256)":"ea668ea8","removeTrustedIssuerB(uint256,uint256)":"b5744669","requiredCitizenship()":"c818d38c","setMinAge(uint256)":"d34ff9c3","setRequiredCitizenship(uint256)":"fe5380de","transferOwnership(address)":"f2fde38b","trustedIssuerA(bytes32)":"a02b814f","trustedIssuerB(bytes32)":"e7de4c6f","verifier()":"2b7ac3f3","verifyProof(uint256[2],uint256[2][2],uint256[2],uint256[9])":"c542c93b"},"id":19}